:03000000020200F9
:1002000075B000E5A054FFB4FF0480F7ADC8B4FE9C
:100210003275B00112027A75B00212027A75B0041A
:1002200012027A75B00812027A75B01012027A754D
:10023000B02012027A75B04012027A75B0801202B4
:100240007A80CBB4FD3275B08012027A75B040125C
:10025000027A75B02012027A75B01012027A75B067
:100260000812027A75B00412027A75B00212027A8C
:1002700075B00112027A808B808979C87AC8000033
:0602800000DAFBD9F722B1
:00000001FF
