:03000000020200F9
:1002000012020C12023F1202720202007B1475B03D
:10021000FE75A03F12028A75B0FD75A04112028AD8
:1002200075B0C375A08112028A75B0BF75A0411266
:10023000028A75B07F75A03F12028ADBD122227C30
:100240001475B0FE75A01812028A75B0FD75A02451
:1002500012028A75B0FB75A04212028A75B0F7755A
:10026000A0FF12028A75B00F75A08112028ADCD13C
:1002700022227D1475B0FC75A0FF12028A75B003AE
:1002800075A01812028ADDEC222279287A28000053
:0602900000DAFBD9F722A1
:00000001FF
