:03000000020200F9
:100200007B027C0275F04012024575F079120245BE
:1002100075F02412024575F03012024575F019127E
:10022000024575F01212024575F00212024575F092
:100230007812024575F00012024575F01012024561
:10024000DBC20202961203457440120350120345AA
:10025000747912035012034574241203501203459B
:1002600074301203501203457419120350120345DF
:100270007412120350120345740212035012034504
:100280007478120350120345740012035012034590
:1002900074101203502275F0101202F475F000125F
:1002A00002F475F0781202F475F0021202F475F09F
:1002B000121202F475F0191202F475F0301202F401
:1002C00075F0241202F475F0791202F475F0401200
:1002D00002F4DCC2C2A1C2A075A0037580FF1203A4
:1002E0005AC2A1D2A0758024C2A0D2A175804012AA
:1002F000035A80E012034574101203501203457430
:10030000001203501203457478120350120345740F
:100310000212035012034574121203501203457463
:10032000191203501203457430120350120345741E
:1003300024120350120345747912035012034574BA
:100340004012035022D2A0C2A185F08012035A228B
:10035000C2A0D2A1F58012035A2279647A64000007
:0603600000DAFBD9F722D0
:00000001FF
