:03000000020200F9
:100200007440120235747912023574241202357466
:10021000301202357419120235741212023574024A
:1002200012023574781202357400120235741012FD
:100230000235020200D2B1C2B2F5A01202F4C2B17C
:10024000D2B275A0401202F4D2B1C2B2F5A012022D
:10025000F4C2B1D2B275A0791202F4D2B1C2B2F531
:10026000A01202F4C2B1D2B275A0241202F4D2B12B
:10027000C2B2F5A01202F4C2B1D2B275A03012021D
:10028000F4D2B1C2B2F5A01202F4C2B1D2B275A0DA
:10029000191202F4D2B1C2B2F5A01202F4C2B1D264
:1002A000B275A0121202F4D2B1C2B2F5A01202F4D9
:1002B000C2B1D2B275A0021202F4D2B1C2B2F5A09C
:1002C0001202F4C2B1D2B275A0781202F4D2B1C255
:1002D000B2F5A01202F4C2B1D2B275A0001202F4BB
:1002E000D2B1C2B2F5A01202F4C2B1D2B275A0105E
:1002F0001202F42279647A64000000DAFBD9F72252
:00000001FF
