:03000000020200F9
:100200007B017C0175F04012024575F079120245C0
:1002100075F02412024575F03012024575F019127E
:10022000024575F01212024575F00212024575F092
:100230007812024575F00012024575F01012024561
:10024000DBC20202961203487440120353120348A1
:10025000747912035312034874241203531203488F
:1002600074301203531203487419120353120348D3
:1002700074121203531203487402120353120348F8
:100280007478120353120348740012035312034884
:1002900074101203532275F0101202D775F0001279
:1002A00002D775F0781202D775F0021202D775F0F6
:1002B000121202D775F0191202D775F0301202D758
:1002C00075F0241202D775F0791202D775F040123A
:1002D00002D7DCC20203281203487410120353121F
:1002E0000348740012035312034874781203531224
:1002F0000348740212035312034874121203531278
:100300000348741912035312034874301203531232
:1003100003487424120353120348747912035312CE
:10032000034874401203532275B00675A07F120370
:100330005D75B00012035D75B00012035D75B00607
:1003400075A00012035D80E0D2B1C2B285F0A012A8
:10035000035D22C2B1D2B2F5A012035D2279647AA4
:0903600064000000DAFBD9F72269
:00000001FF
