:03000000020200F9
:1002000074381202CA1202F4740E1202CA1202F4F4
:1002100074011202CA1202F474801202CA1202F4A9
:1002200074201202BC74201202BC74441202BC740A
:10023000311202BC74361202BC74541202BC7448EF
:100240001202BC74441202BC744B1202BC7426121B
:1002500002BC74541202BC74441202BC74481202F0
:10026000BC74311202BC74C01202CA1202F47420AF
:100270001202BC74441202BC74491202BC744E12C5
:1002800002BC74481202BC74201202BC74541202E4
:10029000BC74521202BC744F1202BC744E1202BCE7
:1002A00074471202BC74201202BC74441202BC7463
:1002B000411202BC74541202BC0202101202D81283
:1002C00002F474061202CA1202F41202E6F5A0C287
:1002D000B0C2B1D2B2C2B2221202E6F5A0D2B0C20E
:1002E000B1D2B2C2B222D2A7C2B0D2B1C2B2D2B2DD
:1002F00020A7F92279647A64000000DAFBD9F7229A
:00000001FF
